S01700004C69676874436F6E74726F6C6C65722E73726563F1
S113000009C021C020C01FC01EC01DC04DC01BC0E0
S11300101AC01AC011241FBECFE9CDBF10E0A0E65C
S1130020B0E0ECEBF3E002C005900D92A236B1070C
S1130030D9F720E0A2E6B0E001C01D92AA37B207CA
S1130040E1F741D1B9C1DCCF1F920F920FB60F92E5
S113005011242F933F938F93EF93FF93809162002A
S1130060E82FF0E024B135B1EE0FFF1FEC58FF4F3D
S1130070318320838F5F823018F48093620002C042
S113008010926200809162008F5F87B980E28A9546
S1130090F1F7369AFF91EF918F913F912F910F9045
S11300A00FBE0F901F9018951F920F920FB60F92CC
S11300B011242F933F938F939F93B19B0EC08091F4
S11300C06000882321F08150809360000CC010925E
S11300D0630089E18093600006C081E0809363003F
S11300E089E18093600080916300882309F469C0EA
S11300F080916E0090916F00019690936F008093B1
S11301006E0080916E0090916F00803D974008F4DE
S11301106CC080ED97E090936F0080936E008091A7
S11301206A0090916B00019690936B0080936A0033
S113013080916A0090916B00873E934009F055C00E
S113014010926B0010926A0080916800909169008F
S11301500196909369008093680080916800909163
S11301606900CB9709F041C01092690010926800B1
S11301708091660090916700019690936700809348
S113018066008091660090916700CB9771F510929C
S1130190670010926600809164009091650001965A
S11301A09093650080936400809164009091650051
S11301B00697D8F087E090E0909365008093640000
S11301C014C010926B0010926A0010926900109291
S11301D068001092670010926600109265001092F9
S11301E0640010926F0010926E00B09919C0809153
S11301F06300811115C020917200309173008091C9
S11302007800909179008217930750F080917000E4
S1130210909171000196909371008093700004C0D6
S11302201092710010927000B09917C02091720062
S11302303091730080917800909179008217930730
S113024060F4B39B0AC080916C0090916D0001969C
S113025090936D0080936C0004C010926D00109216
S11302606C0012BE9F918F913F912F910F900FBE02
S11302700F901F90189580E886BD16BC88E087BB58
S113028083E188BB14BA81E087B98EEE86B913B8CE
S113029082E08FBD83E083BF12BE85E986BF19BCAF
S11302A084E089BF78940895E4E7F0E08081918147
S11302B0909373008093720082819381909379006C
S11302C080937800089518BAD6DFF894C09163003B
S11302D07894EADFCC23E9F080916E0090916F006E
S11302E0803D9740B0F0809164009091650005973F
S11302F008F460C00EC080916E0090916F00803D44
S1130300974038F08091640090916500059708F457
S11303104FC02091720030917300809178009091C9
S113032079008217930758F0B09909C08091700042
S113033090917100883B9B4010F0C39AC6CFB0994E
S113034016C02091720030917300809178009091D2
S113035079008217930758F4B39B09C080916C000D
S113036090916D008938934110F0C398AECFB09945
S11303700FC02091720030917300809178009091A9
S113038079008217930720F0B39B02C0C39A9DCFD4
S1130390B09B9BCF209172003091730080917800C4
S11303A0909179002817390708F08FCFC3988DCF23
S10F03B0C39AA1CFC39A9FCFF894FFCF4B
S10503BC190022
S9030000FC
